:020000040000FA
:107C8000BE308A00512E23008D10200023000D11DC
:107C900020003E308A000D193B2E0E158D120D1D51
:107CA0004D2E30309800230090309D0026309E00ED
:107CB000210021001B30970023009F1523008D1009
:107CC000200023000D11200023008D1221008D12B1
:107CD000200021000E1120002100F0309900230027
:107CE0001D12190819082000970196011110DC26B1
:107CF0001814DC2618101118742E160823009B0087
:107D00002000170823009C0023001D16203084004B
:107D100000308500E7270F3A031D6F2E0F30DF2755
:107D2000E7270F3A03198E2E0008043A0319A12EF3
:107D30000008053A031D9D2EE727840A841F902E14
:107D40006F2E21000403A300A30320308400003021
:107D50008500A001A1010008E926840A0408230285
:107D6000031DAB2E20080002031D6F2E840A21087C
:107D70000002031D6F2EA001A10120002208840033
:107D8000210823009100040892002630840000306E
:107D9000850020000A30200203186F2E2008820779
:107DA000062F0E2F2D2F462F6D2FA22FB32FC32F4F
:107DB00000003E308A003B2E6400111808008D1C24
:107DC0003B2E0E158D128E1BDD2E8E1FE52E08000C
:107DD00021002106A2002008A1002208A000200EF8
:107DE0000F39A006200EF039A106A00E0310200DB9
:107DF0000318013EA106E039A106A00EA006080066
:107E0000C00101050102403E00001E010630A50030
:107E1000A601230000309100BF3092002227CF2717
:107E2000E9260408CF27E9262300910A0319920ABC
:107E300020000130A502031CA60326082504031D0B
:107E40000E2FC62F230095171514000000002300E5
:107E5000140884001308200008002227E8260408DC
:107E6000E9262300910A0319920A11081F39031DFC
:107E70002D2FCB2720000130A502031CA6032608C6
:107E80002504031D2D2FC72F402E402E23003F30E9
:107E90009205E03091053E30120240300319110284
:107EA000031C5E2F40301202003003191102031828
:107EB0005E2F23009501622F402E402E2300943028
:107EC0009500F527230020309102031C9203200027
:107ED000A50B462FC32F402E402E23003F30920586
:107EE000F83091053E301202403003191102031C94
:107EF000852F403012020030031911020318852F1C
:107F000023009501882F402E402E230084309500B9
:107F100023000008840A930095161108073A0739D0
:107F2000031995120008840A9400F4272300910A8B
:107F30000319920A07301105031D882F2000A50B95
:107F40006D2FC32F2300950115141518A52F23009D
:107F500013082300910A0319920ACF27E92620006B
:107F6000A50BA22FC62F840A00082300930023002C
:107F700004309500F5279518BB2F2300910A2000A7
:107F8000A50BB32FC32F2008CF27E926CB2720002E
:107F90000430DF27842E21002008CF27210821006C
:107FA000A3000F3A0319DC2F2308043A0319DC2F2E
:107FB0002308053A031DDE2F0530DF2723082000A4
:107FC0006400111EE12F23009A0021000800200008
:107FD00064008D1C3B2E911EE72F23001908200002
:107FE00080000800402E402E23006400553096008B
:0C7FF000AA309600951400000000080064
:020000040001F9
:02000E00FC1FD5
:02001000FF1FD0
:00000001FF
